:100000000EC01DC01CC01BC01AC019C018C017C02C
:1000100016C015C014C013C012C011C010C01124E6
:100020001FBECFE5D2E0DEBFCDBF10E0A0E6B0E05E
:1000300001C01D92A236B107E1F728D038C0E0CF49
:1000400087B18F7187B9379A309886B1866086B943
:100050000895399A87B187B9369A3699FECF24B177
:1000600035B1C90108958AB583608ABD83B7877F9A
:1000700083BF8AB580688ABD83B78F7B83BF83B710
:100080008A7F83BF83B7826083BF0895CF93DF9356
:10009000D7DFE9DFB89AC8EAD1E6DBDF9695879526
:1000A0009695879589BDCE010197F1F7F6CFF89423
:0200B000FFCF80
:00000001FF
