:100000000EC027C01CC01BC01AC019C018C017C022
:1000100016C015C014C013C012C011C010C01124E6
:100020001FBECFE5D2E0DEBFCDBF10E0A0E6B0E05E
:1000300001C01D92A136B107E1F702D022C0E0CF86
:10004000BC9A78948BB780648BBF85B7816085BF7D
:10005000FFCF1F920F920FB60F9211248F938091B2
:100060006000882321F0C49A1092600004C0C498F4
:1000700081E0809360008F910F900FBE0F901F90D2
:060080001895F894FFCF73
:00000001FF
