:100000000EC015C014C013C012C011C010C00FC064
:100010000EC00DC00CC00BC00AC009C008C011241E
:100020001FBECFE5D2E0DEBFCDBF08D02DC0E8CFE8
:1000300090E01CD0089590E011D00895B89A80E027
:1000400090E061E013D080E090E008D0882311F0C8
:10005000C09801C0C09A80E090E00895E199FECF79
:100060009FBB8EBBE09A99278DB30895262FE19907
:10007000FECF1CBA9FBB8EBB2DBB0FB6F894E29A85
:0C008000E19A0FBE01960895F894FFCF9E
:00000001FF
