:100000000EC015C014C013C012C011C010C00FC064
:100010000EC00DC00CC00BC00AC009C008C011241E
:100020001FBECFE5D2E0DEBFCDBF02D029C0E8CFF2
:100030008AB583608ABD83B7877F83BF8AB58068AE
:100040008ABD83B78F7B83BF83B78A7F83BF83B724
:10005000826083BFB89A80E889BD20E044EC59E013
:1000600005C029BDCA010197F1F72F5F2C3FC8F3E6
:100070002CEF29BDCA010197F1F72150D1F7F6CF36
:04008000F894FFCF22
:00000001FF
